:100000000C9477030C94281F0C94551F0C945125C5
:100010000C9475250C9499250C949F030C949F03C4
:100020000C949F030C949F030C949F030C949F03C8
:100030000C949F030C949F030C949F030C949F03B8
:100040000C94821F0C949F030C9430220C946C220D
:100050000C949F030C949F030C949F030C949F0398
:100060000C946F2E0C949F03991AB31AD31AE71AA3
:10007000F81A301B391B441B4F1B5C1B5C1B5C1BA1
:100080005C1B5C1B5C1B5C1B5C1B5C1B5C1B5C1BB8
:100090005C1B5C1B5C1B5C1B5C1B5C1B5C1B5C1BA8
:1000A0005C1B5C1B5C1B5C1B991AAB1AB31AD31A42
:1000B000E71AF81A0C1B171B221B084AD73B3BCE2A
:1000C000016E84BCBFFDC12F3D6C74319ABD568357
:1000D0003DDA3D00C77F11BED9E4BB4C3E916BAA0F
:1000E000AABE000000803F05A84CCDB2D44EB9385E
:1000F00036A9020C50B9918688083CA6AAAA2ABE45
:10010000000000803F476569676965204E616E6F3A
:1001100020257300426174746572793D2530326424
:100120000025250023253034640054656D703D257D
:100130006400430048756D69643D25640025250011
:10014000434F3D256400253034642530326425302A
:1001500032642E6C6F670023204E4557204C4F476A
:100160000A2320666F726D61743D00312E312E348A
:10017000006E616E6F0A23206465616474696D6549
:100180003D6F6E0A002425732C253034642C2530F5
:1001900032642D253032642D2530326454253032BE
:1001A000643A253032643A253032645A2C256C6426
:1001B0002C256C642C256C642C25632C25732C2534
:1001C000632C25732C25632C25732C25632C256427
:1001D0002C256C64002A255825732425732C253082
:1001E00034642C25642C25642C25642C257300256F
:1001F00030326468253032646D002043504D004E2B
:100200006F20475053005E00207553762F68002002
:1002100042712F6D32006B6D002D2D002530326440
:100220002F2530326420253032643A253032643A4A
:1002300025303264002075532F6800232530346444
:100240000054656D703D256400430048756D696418
:100250003D256400252500434F3D256400253034AD
:100260006C642E2530346C64002530356C642E258A
:1002700030346C64004A504E00726561642025730E
:100280002030202564000000000700020100000368
:100290000406000000000000000001020408102015
:1002A0004080010204081020010204081020040408
:1002B000040404040404020202020202030303030E
:1002C00003030000000023002600290000000000B6
:1002D000250028002B0000000000240027002A0031
:1002E00000C20100010005000500030000E100005C
:1002F00001000F000F000D00009600000200190021
:100300001A001700127A00000700200021001D00CB
:10031000807000000B00230023002000004B000031
:100320001400370037003400403800001E004B0036
:100330004B004800802500003200720072007000FF
:10034000C01200006E00E900E900E600600900004C
:10035000E500D801D801D501B0040000D301B403F1
:10036000B403B1032C0100006707DD0EDD0EDA0EC9
:1003700000000000003E5B4F5B3E3E6B4F6B3E1C3F
:100380003E7C3E1C183C7E3C181C577D571C1C5E56
:100390007F5E1C00183C1800FFE7C3E7FF0018242D
:1003A0001800FFE7DBE7FF30483A060E26297929D7
:1003B00026407F050507407F05253F5A3CE73C5A0C
:1003C0007F3E1C1C08081C1C3E7F14227F22145FE9
:1003D0005F005F5F06097F017F006689956A606044
:1003E00060606094A2FFA29408047E040810207E3E
:1003F000201008082A1C08081C2A08081E101010C3
:10040000100C1E0C1E0C30383E3830060E3E0E0608
:10041000000000000000005F00000007000700145B
:100420007F147F14242A7F2A12231308646236491A
:100430005620500008070300001C22410000412202
:100440001C002A1C7F1C2A08083E08080080703007
:100450000008080808080000606000201008040276
:100460003E5149453E00427F40007249494946217C
:1004700041494D331814127F1027454545393C4AF0
:100480004949314121110907364949493646494907
:10049000291E00001400000040340000000814224F
:1004A00041141414141400412214080201590906BD
:1004B0003E415D594E7C1211127C7F494949363EBE
:1004C000414141227F4141413E7F494949417F09A4
:1004D0000909013E414151737F0808087F00417FAF
:1004E00041002040413F017F081422417F404040AD
:1004F000407F021C027F7F0408107F3E4141413E45
:100500007F090909063E4151215E7F0919294626C6
:100510004949493203017F01033F4040403F1F20CA
:1005200040201F3F4038403F6314081463030478A1
:1005300004036159494D43007F41414102040810C1
:1005400020004141417F04020102044040404040FC
:10055000000307080020545478407F28444438386A
:1005600044444428384444287F38545454180008DC
:100570007E090218A4A49C787F0804047800447DB6
:1005800040002040403D007F1028440000417F4053
:10059000007C047804787C080404783844444438A7
:1005A000FC1824241818242418FC7C080404084887
:1005B0005454542404043F44243C4040207C1C20D8
:1005C00040201C3C4030403C44281028444C909033
:1005D000907C4464544C440008364100000077008D
:1005E000000041360800020102040200407A10F3C4
:1005F0005A00A0724E18090010A5D4E80000E87651
:1006000048170000E40B54020000CA9A3B000000A7
:10061000E1F505000080969800000040420F0000C0
:1006200000A08601000000102700000000E8030081
:100630000000006400000000000A0000000000014B
:1006400000000000002C76D888DC674F0823DFC14B
:10065000DFAE59E1B1B796E5E3E453C63AE6519906
:100660007696E8E6C28426EB898C9B62ED407C6F2F
:10067000FCEFBC9C9F40F2BAA56FA5F490055A2AE6
:10068000F75C936B6CF9676DC11BFCE0E40D47FEF2
:10069000F520E6B500D0ED902E03009435770500E7
:1006A00080841E080000204E0A000000C80C33336E
:1006B00033330F986E12831141EF8D2114893BE67D
:1006C0005516CFFEE6DB18D1844B381BF77C1D9006
:1006D0001DA4BBE424203284725E228100C9F1246F
:1006E000ECA1E53D27004D113E23B82D52111124F8
:1006F0001FBECFEFD8E0DEBFCDBF14E0A0E0B1E079
:10070000ECE7F2E702C005900D92A630B107D9F7E9
:1007100018E0A6E0B4E001C01D92A632B107E1F7EF
:1007200016E0CCEED6E004C02297FE010E942D39DF
:10073000C63ED107C9F70E94E2230C94A1030C9492
:100740000000F8940C943139EF92FF920F931F93AD
:1007500081309105A9F583E295E066E047E025E068
:1007600003E034E0E32E0E949F2A87EA94E06AE0E7
:100770004BE020E00E940B2682E394E061E00E94BF
:100780001D1786E194E068E049E020E00E940B2616
:1007900080E194E063E170E042E150E00E942E15B8
:1007A00086E094E067EA74E04CE655E027E136E045
:1007B00009E915E0E4E6EE2EF12C0E94E4110AC0EE
:1007C000009741F486E194E00E940E2787EA94E0C6
:1007D0000E940E271F910F91FF90EF9008951F9395
:1007E000CF93DF93182FC0E0D0E0219687EA94E002
:1007F0000E943D24009779F087EA94E00E94EF235D
:10080000AC01112319F02EE330E002C02CE330E0FC
:100810004217530751F06AE070E080E090E00E94D8
:100820000820C83CD10509F704C081E0C83CD105C7
:1008300009F480E0DF91CF911F9108950F931F93EA
:10084000CF93DF938DE061E00E94BC208EE060E0FA
:100850000E94BC208AE396E040E855E260E070E048
:100860000E94A72286E094E00E949B1487EA94E00D
:1008700040E855E260E070E00E9438268CE061E0DC
:100880000E94BC2087EA94E00E945C248CE060E037
:100890000E94F02064E670E080E090E00E94082072
:1008A0008CE061E00E94F02081E00E94EF03882349
:1008B00021F481E08093090503C081E08093A604C0
:1008C0008091A604882331F086E094E060E071E036
:1008D0000E941C1280E090E048E853E160E070E084
:1008E0000E946B110E94861186E194E040E855E277
:1008F00060E070E00E94382686E194E00E945C246B
:1009000083E00E946C2083E295E062E04CE30E9469
:10091000272B83E295E00E94322C68EE73E080E0A2
:1009200090E00E94082083E295E00E94B02A83E2D2
:1009300095E061E070E00E940B2A83E295E061E0BF
:100940000E94052A00D000D000D0EDB7FEB7319646
:100950008CE495E0ADB7BEB712969C938E93119739
:1009600085E091E0938382838DE091E09583848399
:100970000E94A633EDB7FEB736960FB6F894FEBFC9
:100980000FBEEDBF83E295E060E070E040E050E034
:100990000E94FF2980917005882329F483E295E065
:1009A00063E171E004C083E295E065E171E00E94DB
:1009B000A32383E295E06CE475E00E94A32383E225
:1009C00095E060E070E048E050E00E94FF2985E19A
:1009D0000E946F209C01B901882777FD8095982F90
:1009E0000E94383120E030E040E85AE30E94513262
:1009F00020E030E040E251E40E94513224EB35EC3B
:100A00004AEC5DE30E949D3020E030E040EF51E48D
:100A10000E94CF2F20E030E048E451E40E945132A0
:100A20000E9405316C5E7F4F77FD04C0653671050D
:100A300024F405C061E070E002C064E670E000D01C
:100A400000D000D0EDB7FEB73196CCE4D5E0ADB71D
:100A5000BEB71296DC93CE93119784E191E0938315
:100A60008283758364830E94A633EDB7FEB7369602
:100A70000FB6F894FEBF0FBEEDBF83E295E0BE0156
:100A80000E94A32300D000D0ADB7BEB71296DC936E
:100A9000CE93119781E291E014969C938E931397D5
:100AA0000E94A6330F900F900F900F9083E295E075
:100AB000BE010E94A32383E295E065E570E048E073
:100AC00050E00E94FF2900D000D000D0EDB7FEB763
:100AD0003196ADB7BEB71296DC93CE93119784E2F0
:100AE00091E0938382838091820590918305958321
:100AF00084830E94A633EDB7FEB736960FB6F894FE
:100B0000FEBF0FBEEDBF83E295E0BE010E94A323AE
:100B100080E194E00E9468160E940531DC01CB015F
:100B20009093B3018093B20180E194E00E94851616
:100B30000E940531DC01CB019093B1018093B0019B
:100B400083E295E060E070E040E150E00E94FF2920
:100B500000D000D000D0EDB7FEB73196ADB7BEB72C
:100B60001296DC93CE9311978AE291E0938382836D
:100B70008091B2019091B301958384830E94A63342
:100B8000EDB7FEB736960FB6F894FEBF0FBEEDBFB9
:100B900083E295E0BE010E94A32300D000D0ADB750
:100BA000BEB71296DC93CE93119782E391E0149630
:100BB0009C938E9313970E94A6330F900F900F90E3
:100BC0000F9083E295E0BE010E94A32383E295E0AB
:100BD00064E370E040E150E00E94FF2900D000D0C3
:100BE00000D0EDB7FEB73196ADB7BEB71296DC9325
:100BF000CE93119784E391E0938382838091B00137
:100C00009091B101958384830E94A633EDB7FEB71E
:100C100036960FB6F894FEBF0FBEEDBF83E295E0A7
:100C2000BE010E94A32300D000D0ADB7BEB712967C
:100C3000DC93CE9311978DE391E014969C938E9361
:100C400013970E94A6330F900F900F900F9083E29E
:100C500095E0BE010E94A32383E295E060E070E08E
:100C600048E150E00E94FF2981E10E946F209093AB
:100C7000B9018093B80100D000D000D0EDB7FEB725
:100C80003196ADB7BEB71296DC93CE93119720E4A0
:100C900031E033832283958384830E94A633EDB7AA
:100CA000FEB736960FB6F894FEBF0FBEEDBF83E2D7
:100CB00095E0BE010E94A32383E295E068E270E024
:100CC00048E150E00E94FF2983E295E067E171E08E
:100CD0000E94A32380E10E946F209C01B901882714
:100CE00077FD8095982F0E94383120E030E04AE768
:100CF00054E40E949D3044E023E08E010E9425339D
:100D000083E295E0BE010E94A32383E295E00E9466
:100D1000322C68E273E280E090E00E940820DF91CC
:100D2000CF911F910F9108958F929F92BF92CF9272
:100D3000DF92EF92FF920F931F93CF93DF93B82E22
:100D40006A017B014901CB01BA010E94363120E0E2
:100D500030E543EC57E40E949D300E940A31EB01DC
:100D6000182F092F20EA36E841E050E00E948C3825
:100D7000DC01CB01A7019601281B390B4A0B5B0B49
:100D8000CA01B9012AE030E040E050E00E94D238C8
:100D90008DB79EB70C97BB2089F00FB6F8949EBF15
:100DA0000FBE8DBFEDB7FEB73196ADB7BEB7129689
:100DB0009C928E9211978DE592E010C00FB6F89438
:100DC0009EBF0FBE8DBFEDB7FEB73196ADB7BEB7B4
:100DD00012969C928E92119789E692E09383828379
:100DE000C483D5831683078320873187428753873F
:100DF0000E94A6332DB73EB7245F3F4F0FB6F8943D
:100E00003EBF0FBE2DBFDF91CF911F910F91FF907D
:100E1000EF90DF90CF90BF909F908F900895CF92EA
:100E2000DF92EF92FF920F931F93CF93DF930E9475
:100E3000363120E836E948E15BE40E949D308B01C1
:100E4000D82FC92FCE01402F512F692F782FCB01DA
:100E5000BA010E940531882777FD8095982F0E945E
:100E600038316B017C019E01802F912FA32FB22F6F
:100E7000BC01CD01A70196010E94CF2F20E030E0F8
:100E800040E752E40E949D3020E030E048EC52E41C
:100E90000E945132462F572F682F792FCB01BA016C
:100EA000A70196010E94D02F462F572F682F792F28
:100EB000CB01BA01DF91CF911F910F91FF90EF907D
:100EC000DF90CF9008952F923F924F925F926F9252
:100ED0007F928F929F92AF92BF92CF92DF92EF92CA
:100EE000FF920F931F93CF93DF93CDB7DEB7AC97ED
:100EF0000FB6F894DEBF0FBECDBF8EE00E946F200C
:100F000021E0853F92071CF01092700503C081E03C
:100F10008093700586E194E00E945C240E94CC1FBF
:100F20006B017C0100E011C086E194E00E94EF2398
:100F3000682F82E394E00E94641B811101E086E146
:100F400094E00E943D24009779F70E94CC1FAB01EA
:100F5000BC01D701C601841B950BA60BB70BC416A9
:100F6000D506E606F70620F480959095A095B095F5
:100F7000883E33E0930730E0A30730E0B30710F07A
:100F80000C942E110E949B11009711F00C942E11BD
:100F9000D6CF8091B401813419F48DE061E002C0B4
:100FA0008DE060E00E94F0200E949B11009711F4F8
:100FB0000C9434110E94DB11698F7A8F8B8F9C8F78
:100FC0000E9486118091D5049091D604A091D704F7
:100FD000B091D804FC01EE0FFF1FEE0FFF1FE75288
:100FE000FB4F298D3A8D4B8D5C8D2083318342835D
:100FF00053830196A11DB11DBC01CD012CE030E051
:1010000040E050E00E94D238DC01CB018093D5044F
:101010009093D604A093D704B093D804E9EDF4E0FC
:1010200080E090E0DC014191519161917191840FD8
:10103000951FA61FB71F35E0E930F307A1F7BC01E4
:10104000CD010E9436316B017C0122EB35EC4CEF77
:1010500055E30E9451329B01AC0160E070E080E8F2
:101060009FE30E94CF2F9B01AC01C701B6010E94F4
:101070009D300E940A316D8B7E8B8F8B988F809173
:10108000D1049091D204A091D304B091D404298DBD
:101090003A8D4B8D5C8D820F931FA41FB51F8093DB
:1010A000D1049093D204A093D304B093D40480913C
:1010B000C9049091CA04A091CB04B091CC040596C8
:1010C000A11DB11D8093C9049093CA04A093CB04C1
:1010D000B093CC048091CD049091CE04A091CF0424
:1010E000B091D0042D893E894F89588D821793077E
:1010F000A407B50740F42093CD043093CE04409369
:10110000CF045093D0048091C3049091C4048C30D8
:1011100091054CF426E52093B50101969093C40403
:101120008093C3040DC08D899E89AF89B88D0097C7
:10113000A105B10511F486E501C081E48093B501F4
:1011400080910905882309F0E6C08091B4018134BB
:1011500009F0E1C08CED97E098878F831E821D8295
:101160001C821B821A82198282E394E0BE01695FAD
:101170007F4FAE014A5F5F4F9E012B5F3F4F8E0155
:101180000C5F1F4FE3E0EE2EF12CEC0EFD1EF2E0A3
:10119000CF2ED12CCC0EDD1E5E010894A11CB11CFB
:1011A000A1E18A2E912C8C0E9D1E0E94C01D898962
:1011B0009A89AB89BC898F3FEFEF9E07EFEFAE07AF
:1011C000EFEFBE0709F4A7C02DB73EB72A50304055
:1011D0000FB6F8943EBF0FBE2DBFEDB7FEB73196E8
:1011E0008AE095E0ADB7BEB712969C938E931197A7
:1011F00086E491E0938382838091820590918305B8
:10120000958384838E81868317828D818087118662
:101210000E94A63381E080930905EDB7FEB73A96A8
:101220000FB6F894FEBF0FBEEDBF87EA94E00E94B0
:101230005C24A89587EA94E06CE171E00E94A32306
:1012400087EA94E06AE075E00E94A32387EA94E0CD
:101250006DE00E94E52480E00E94EF03882391F472
:101260008CE060E00E94F02064E670E080E090E0B6
:101270000E9408208CE061E00E94F02081E00E9442
:10128000EF03D7CF00D000D00CE415E0ADB7BEB768
:1012900012961C930E93119787E591E014969C93F8
:1012A0008E9313970E94A6330F900F900F900F907C
:1012B00087EA94E0B8010E94A32300D000D0EDB7E4
:1012C000FEB7128301838BE691E0948383830E94AF
:1012D000A6330F900F900F900F9087EA94E0B8011B
:1012E0000E94A32300D000D0ADB7BEB712961C93C6
:1012F0000E93119781E791E014969C938E93139728
:101300000E94A6330F900F900F900F9087EA94E001
:10131000B8010E94A32384E6E9E9F5E0DF011D920C
:101320008A95E9F70CED602E07E0702E78866F82C3
:1013300019821A821B821C821D821E82198A1A8AB5
:101340001B8A1C8A1D861E861F86188A8CE0EDEF7C
:10135000F5E0DF01282F1D922A95E9F7E9E0F6E094
:10136000DF011D928A95E9F780E2ECE4F5E0DF0108
:101370001D928A95E9F782E394E0BE01695F7F4F91
:10138000AE014F5F5F4F9E012E5F3F4F8E010D5F9D
:101390001F4FA4E0EA2EF12CEC0EFD1EB5E0CB2E83
:1013A000D12CCC0EDD1EA6E0AA2EB12CAC0EBD1E9B
:1013B000B9E08B2E912C8C0E9D1E0E94C01D89853C
:1013C0009A85AB85BC858F3FEFEF9E07EFEFAE07A9
:1013D000EFEFBE0741F478866F8219821A821B8272
:1013E0001C821D821E8282E394E0BE016F5E7F4FED
:1013F000AE01435F5F4F9E01275F3F4F0E942E1D4E
:1014000080919A04882311F486E501C081E48093D9
:10141000B40182E394E00E94981E6BA37CA38DA389
:101420009EA382E394E00E94DE1E6D8F7E8F8F8FDD
:1014300098A320917204309173043AA329A3C09019
:101440006A04D0906B04E0906C04F0906D0489897C
:101450009A89AB89BC89B7FF0EC0B095A0959095CD
:1014600081959F4FAF4FBF4F898B9A8BAB8BBC8BB6
:1014700013E5912E02C0FEE49F2E8D859E85AF85DB
:10148000B889B7FF0EC0B095A095909581959F4FF4
:10149000AF4FBF4F8D879E87AF87B88BE7E54E2E46
:1014A00002C075E4472E49895A896B897C894F3F70
:1014B00039EC53073AE963073BE3730719F440E05B
:1014C00050E0BA0181E02DEF35E00E9494064D8591
:1014D0005E856F8578894F3F89EC58078AE96807F0
:1014E0008BE3780719F440E050E0BA0180E029E08E
:1014F00036E00E9494065BA14CA13DA12EA1852F50
:10150000942FA32FB22FBC01CD012091BC033091A9
:10151000BD034091BE035091BF030E9496308823C3
:1015200021F470E060E090E004C07BA16CA19DA17B
:101530008EA1AB019C01852F962FA32FB22FBC014A
:10154000CD0140E022E00CE415E00E94253380E16B
:1015500094E00E9468160E940531DC01CB01909353
:10156000B3018093B20180E194E00E9485160E944D
:101570000531DC01CB019093B1018093B00180E192
:101580000E946F209093B7018093B60181E10E9481
:101590006F209093B9018093B801E9E9F5E084E602
:1015A000DF011D928A95E9F720908205309083052E
:1015B0002F81388538A72FA329813A814B815C81FF
:1015C0006D818091D1049091D204A091D304B09107
:1015D000D40489A79AA7ABA7BCA77091B501809046
:1015E000B4013F01A9A1BAA1AF3FB10519F400E0D0
:1015F00010E002C009A11AA1BFEFCB16BFEFDB06B6
:10160000BFEFEB06BFEFFB0619F4CC24DD24760117
:10161000EDB7FEB7F4970FB6F894FEBF0FBEEDBF5F
:101620003196ADB7BEB712967C926E92119785E84F
:10163000A82E81E0B82EB382A28294E2A92E91E076
:10164000B92EB582A482378226828FA198A5918770
:101650008087228713863487158646871786508BA6
:10166000118A628B138A2D893E894F89588D248B6C
:10167000358B468B578B898D9A8DAB8DBC8D808F2A
:10168000918FA28FB38F29A53AA54BA55CA5248F76
:10169000358F468F578F70A311A28DEF95E093A3DE
:1016A00082A394A215A289E096E097A386A340A600
:1016B00011A68CE495E093A782A784A615A617A788
:1016C00006A7C0AAD1AAE2AAF3AA0E94A633F301F0
:1016D00001900020E9F73197E959F5408E2F90E00D
:1016E00069E9C62E65E0D62EC80ED91ED6011C9219
:1016F000E0909A05EBE9F5E02DB73EB72C5C3F4F43
:101700000FB6F8943EBF0FBE2DBF21E030E004C0FD
:101710004191E4262F5F3F4F28173907CCF380E132
:101720000E946F20AC01BA01882777FD8095982F21
:101730000E94383120E030E04AE754E40E949D30B6
:10174000ECE4AE2EE5E0BE2E44E023E085010E94ED
:1017500025338DB79EB744970FB6F8949EBF0FBE42
:101760008DBFEDB7FEB73196ADB7BEB71296DC921E
:10177000CE92119785ED91E093838283E482158266
:101780008AE291E0978386838CE291E0918780875B
:101790008091820590918305938782878091B20121
:1017A0009091B301958784878091B0019091B101A8
:1017B000978786878091B8019091B901918B808B32
:1017C000B38AA28A0E94A633EDB7FEB774960FB60D
:1017D000F894FEBF0FBEEDBF80919A04882309F4F0
:1017E000ACC069897A898B899C890E940F072B017B
:1017F0003C016D857E858F8598890E940F07698FD2
:101800007A8F8B8F9C8F6D8D7E8D8F8D98A120E030
:1018100030E040EA50E40E944632181624F039E1E4
:10182000832E912C03C025E0822E912C6D8D7E8D10
:101830008F8D98A120E030E040E251E40E944632D2
:1018400018161CF49AE0892E912C6D8D7E8D8F8D4B
:1018500098A120E030E040E751E40E94463218169B
:101860001CF484E1882E912C8091BA018823B9F070
:1018700040921B0550921C0560921D0570921E053A
:10188000298D3A8D4B8D5C8D20931F05309320055B
:1018900040932105509322051092BA014EC0E0906A
:1018A0001B05F0901C0500911D0510911E05A090D0
:1018B0001F05B0902005C0902105D0902205C301DE
:1018C000B201298D3A8D4B8D5C8D0E94ED1B0E94DB
:1018D0000531AB01BC01C401AA2797FDA095BA2F21
:1018E00084179507A607B70740F5809117059091D3
:1018F0001805A0911905B0911A05840F951FA61F10
:10190000B71F8093170590931805A0931905B093FE
:101910001A0540921B0550921C0560921D0570929D
:101920001E05898D9A8DAB8DBC8D80931F0590937C
:101930002005A0932105B093220583E295E00E9443
:10194000B02A80917005882309F0AFC2C090C90405
:10195000D090CA04E090CB04F090CC04C701B6014B
:1019600020E13EE040E050E00E94D23829013A01F7
:101970005092C8044092C70484EC9FEF289F500106
:10198000299FB00C389FB00C1124C701B6012CE37D
:1019900030E040E050E00E94D238A20EB31EB09278
:1019A000C604A092C504ADB7BEB718970FB6F89499
:1019B000BEBF0FBEADBFEDB7FEB731960CE415E06C
:1019C00012961C930E9311978FEE91E0938382836E
:1019D00055824482B782A6820E94A633EDB7FEB735
:1019E00038960FB6F894FEBF0FBEEDBF83E295E0C8
:1019F0006CE570E040E150E00E94FF2983E295E051
:101A000061E00E94052A83E295E061E070E00E94B7
:101A10000B2A83E295E0B8010E94D02383E295E08F
:101A200060E070E040E050E00E94FF2983E295E032
:101A300062E00E94052A8091B501863549F483E26F
:101A400095E060E070E041E050E00E94112A06C09D
:101A500083E295E061E070E00E940B2A2D893E89C7
:101A60004F89588D293E83E0380780E0480780E0A1
:101A70005807D0F0CA01B9010E94363120E030E0A9
:101A80004AE754E40E949D3043E022E00CE415E074
:101A90000E94253383E295E0B8010E94A32383E2EC
:101AA00095E063E371E00FC06D897E898F89988D21
:101AB0000E94363140E020E00CE415E00E9425331E
:101AC00083E295E0B8010E94A32300D000D00CE48B
:101AD00015E0ADB7BEB712961C930E9311978AEF1F
:101AE00091E014969C938E9313970E94A6330F90C7
:101AF0000F900F900F9083E295E0B8010E94A3230E
:101B00008091A604882379F4809115069091160699
:101B1000009749F083E295E060E070E041E050E03A
:101B20000E94112A06C083E295E061E070E00E9405
:101B30000B2A83E295E061E00E94052A80919A04D5
:101B40000CE415E0882399F483E295E06CE570E0FD
:101B500040E050E00E94FF2900D000D0EDB7FEB772
:101B6000128301838FEF91E0948383833AC083E2F1
:101B700095E06EE670E040E050E00E94FF2900D062
:101B800000D000D0EDB7FEB73196ADB7BEB7129614
:101B90001C930E93119785E391E09383828329A18F
:101BA0003AA1358324830E9484334DB75EB74A5FE0
:101BB0005F4F0FB6F8945EBF0FBE4DBF83E295E056
:101BC000B8010E94A32300D000D0ADB7BEB71296D3
:101BD0001C930E93119786E092E014969C938E933B
:101BE00013970E94A6330F900F900F900F9083E2EF
:101BF00095E0B8010E94D02383E295E061E070E0B7
:101C00000E940B2A83E295E060E070E040E150E042
:101C10000E94FF2980917105882349F56D897E898D
:101C20008F89988D0E9436312091850530918605E7
:101C300040918705509188050E949D300CE4C02E8C
:101C400005E0D02E40E023E086010E94253383E2A8
:101C500095E0B6010E94A32300D000D0EDB7FEB7F7
:101C6000D282C18288E092E0948383832EC0813047
:101C7000B9F56D897E898F89988D0E9436312091C2
:101C8000890530918A0540918B0550918C050E9401
:101C900051321CE4C12E15E0D12E40E023E0860134
:101CA0000E94253383E295E0B6010E94A32300D071
:101CB00000D0ADB7BEB71296DC92CE9211978FE0EE
:101CC00092E014969C938E9313970E94A6330F90E4
:101CD0000F900F900F9083E295E0B6010E94D02301
:101CE0008091150690911606BCE4CB2EB5E0DB2E54
:101CF000009709F446C0609117057091180580910E
:101D0000190590911A050E94363120E030E04AE72B
:101D100054E40E949D3040E021E086010E9425337A
:101D2000F60101900020E9F73197EC19FD09CF0188
:101D3000880F991F8E0F9F1F880F991F64E770E00F
:101D4000681B790B83E295E048E050E00E94FF2990
:101D500083E295E0B6010E94A32300D000D0EDB746
:101D6000FEB7D282C18286E192E0948383830E948F
:101D7000A6330F900F900F900F9083E295E0B6017D
:101D80004BC080919A04882381F05BA14CA13DA1B6
:101D90002EA1852F942FA32FB22FBC01CD0140E09F
:101DA00020E086010E94253314C000D000D0ADB7DA
:101DB000BEB71296DC92CE92119789E192E014960A
:101DC0009C938E9313970E94A6330F900F900F90C1
:101DD0000F900CE415E0F80101900020E9F731972D
:101DE000E01BF10BCF01880F991F8E0F9F1F880FEB
:101DF000991F6AE770E0681B790B83E295E048E081
:101E000050E00E94FF2983E295E0B8010E94A323DD
:101E100083E295E069E371E00E94D023EDB7FEB75D
:101E20003E970FB6F894FEBF0FBEEDBF31960CE49F
:101E300015E0ADB7BEB712961C930E9311978CE1C7
:101E400092E0938382838A81848315828981868349
:101E500017828B81808711868C81828713868D8182
:101E6000848715860E94A633EDB7FEB73E960FB65F
:101E7000F894FEBF0FBEEDBF83E295E060E070E036
:101E800048E150E00E94FF2983E295E061E00E9472
:101E9000052A83E295E061E070E00E940B2A83E26C
:101EA00095E0B8010E94D02363C1813009F060C180
:101EB00083E295E061E00E94052A83E295E060E01C
:101EC00070E040E050E00E94FF296D897E898F8993
:101ED000988D0E943631209185053091860540917C
:101EE0008705509188050E949D30BCE4CB2EB5E05B
:101EF000DB2E40E022E086010E94253383E295E05C
:101F0000B6010E94A32300D000D0ADB7BEB7129691
:101F1000DC92CE92119785E392E014969C938E9377
:101F200013970E94A6330F900F900F900F9083E2AB
:101F300095E0B6010E94A32383E295E065E570E099
:101F400040E050E00E94FF2900D000D000D0EDB763
:101F5000FEB73196ADB7BEB71296DC92CE9211970E
:101F60008BE392E093838283809182059091830535
:101F7000958384830E94A633EDB7FEB736960FB6DD
:101F8000F894FEBF0FBEEDBF83E295E0B6010E945C
:101F9000A32383E295E060E070E048E050E00E9417
:101FA000FF2983E295E062E775E00E94A32383E2C4
:101FB00095E060E070E040E150E00E94FF2900D031
:101FC00000D000D0EDB7FEB73196ADB7BEB71296D0
:101FD000DC92CE92119781E492E093838283809188
:101FE000B2019091B301958384830E94A633EDB72B
:101FF000FEB736960FB6F894FEBF0FBEEDBF83E274
:1020000095E0B6010E94A32300D000D0ADB7BEB7C3
:102010001296DC92CE92119789E492E014969C93EA
:102020008E9313970E94A6330F900F900F900F90EE
:1020300083E295E0B6010E94A32383E295E064E386
:1020400070E040E150E00E94FF2900D000D000D0B5
:10205000EDB7FEB73196ADB7BEB71296DC92CE9211
:1020600011978BE492E0938382838091B0019091E9
:10207000B101958384830E94A633EDB7FEB73696EF
:102080000FB6F894FEBF0FBEEDBF83E295E0B60138
:102090000E94A32300D000D0ADB7BEB71296DC9249
:1020A000CE92119784E592E014969C938E931397A9
:1020B0000E94A6330F900F900F900F9083E295E04F
:1020C000B6010E94A32383E295E060E070E048E15E
:1020D00050E00E94FF2900D000D000D0EDB7FEB73D
:1020E0003196ADB7BEB71296DC92CE92119787E5C6
:1020F00092E0938382838091B8019091B901958396
:1021000084830E94A633EDB7FEB736960FB6F894D7
:10211000FEBF0FBEEDBF83E295E0B6010E94A32390
:1021200083E295E068E270E048E150E00E94FF2918
:1021300083E295E067E171E00E94A32380E10E94C1
:102140006F209C01B901882777FD8095982F0E9408
:10215000383120E030E04AE754E40E949D3044E00A
:1021600023E00E94253383E295E0B6010E94A32379
:1021700085E10E946F20AC01BA01882777FD809528
:10218000982F0E94383120E030E040E85AE30E9466
:10219000513220E030E040E251E40E94513224EB21
:1021A00035EC4AEC5DE30E949D3020E030E040EFEA
:1021B00051E40E94CF2F0E9405316B017C0177FD15
:1021C00004C06930710524F406C0CC24DD2403C0AA
:1021D000A8E0CA2ED12C83E295E064E770E048E1E4
:1021E00050E02CE030E007E010E0F1E0EF2EF12CC1
:1021F0000E94EB2783E295E066E770E04AE150E059
:10220000960103E010E00E94762883E295E00E94A8
:10221000322C809115069091160621E030E082273D
:10222000932790931606809315068AE396E069E952
:1022300075E00E94D023809109058823A9F0809140
:102240007005882389F487EA94E00E945C2487EA79
:1022500094E069E975E00E94D02306C0002311F4E0
:102260000C94C9070C94CD07AC960FB6F894DEBF5A
:102270000FBECDBFDF91CF911F910F91FF90EF90D7
:10228000DF90CF90BF90AF909F908F907F906F9096
:102290005F904F903F902F90089581E090E00E94D2
:1022A000A403089580E090E00E94A4030895809123
:1022B0001F0690912006A0912106B091220601965A
:1022C000A11DB11D80931F0690932006A0932106A7
:1022D000B0932206089580932B0690932C0640938A
:1022E00023065093240660932506709326061092C9
:1022F0001F0610922006109221061092220667E512
:1023000071E143E050E00E94081F08950E94CC1F35
:10231000DC01CB018093270690932806A093290621
:10232000B0932A0610921F061092200610922106E2
:10233000109222060895CF92DF92EF92FF920F93B0
:102340001F930E94CC1FDC01CB01409127065091C6
:1023500028066091290670912A06009123061091A3
:102360002406209125063091260684179507A60796
:10237000B70748F06C017D01C41AD50AE60AF70ACE
:10238000B701A60108C04095509560957095480F1B
:10239000591F6A1F7B1F81E090E0401751076207B9
:1023A000730710F480E090E01F910F91FF90EF9081
:1023B000DF90CF90089560911F0670912006809164
:1023C0002106909122060895EF92FF920F931F939A
:1023D000FC01718360835383428335832483178395
:1023E0000683F186E0861F910F91FF90EF9008958C
:1023F000EF92FF920F931F93CF93DF93EB012DE2A8
:10240000E22EF12C8C01061B170BBE01600F711F11
:10241000499185E697E00E941A270894E108F1089F
:10242000E114F10491F78DE290E0DF91CF911F91DB
:102430000F91FF90EF9008957F928F929F92AF92AD
:10244000BF92CF92DF92EF92FF920F931F93CF93A1
:10245000DF935C01EB01DC018D919C910E945C2477
:10246000EDB7FEB738970FB6F894FEBF0FBEEDBFBD
:102470003196D50116968D919C911797ADB7BEB741
:1024800012969C938E93119789E792E093838283AF
:10249000D583C483D50118968D919C911997978304
:1024A00086830E94A633EDB7FEB738960FB6F89430
:1024B000FEBF0FBEEDBFD50116966D917C911797AB
:1024C0008D919C910E94A323F50180819181DC0173
:1024D000ED91FC910190F081E02D6DE00995F50101
:1024E00080819181DC01ED91FC910480F581E02DEA
:1024F00009950097A1F3F50180819181DC01ED91AF
:10250000FC910680F781E02D09958D30910539F712
:10251000F501408551858681978160E070E00E94D9
:102520006533C0E0D0E07724D5018D919C91DC012A
:10253000ED91FC910480F581E02D0995009791F0D3
:10254000F501C681D781C70DD11D80819181DC0144
:10255000ED91FC910680F781E02D099588837394B5
:10256000C0E0D0E061E070E080E090E00E940820F0
:10257000272D30E0F501808591852817390729F04E
:102580002196F3E0C83EDF077CF288249924B7C186
:10259000D50116966D917C911797DB01A80DB11DA1
:1025A00040E009C04F5F882D90E0F501208531851E
:1025B0008217930739F0FB01E80DF11D80818394A8
:1025C0008A3081F7FD01E40FF11D10828C91882380
:1025D00009F495C1833209F492C1433008F48FC1E4
:1025E00080E0ED01C80FD11D9881903211F0993033
:1025F00051F48F5F8417A9F782C1903211F099309E
:1026000009F410828F5F841709F479C1FD01E80F86
:10261000F11D90819D3389F7841709F470C11082F0
:102620008F5F8D01080F111DF8019081903211F01C
:10263000993021F48F5F8417A1F761C1841709F4E1
:102640005EC1CE016BE371E00E946C33009779F5B7
:10265000C8010E9447339C01B901882777FD809506
:10266000982F0E943831EB01F82EE92ED5011296F1
:10267000CD90DC901397F601618D728D838D948DD2
:10268000A7010C2F1D2F252F342FA90198010E947F
:102690009630882309F433C197018C2F9D2FA32FE7
:1026A000B22FF601818F928FA38FB48F26C1CE01F6
:1026B00060E471E00E946C33009779F5C8010E94D4
:1026C00047339C01B901882777FD8095982F0E9498
:1026D0003831EB01F82EE92ED5011296CD90DC9021
:1026E0001397F601658D768D878D90A1A7010C2F2C
:1026F0001D2F252F342FA90198010E949630882381
:1027000009F4FDC097018C2F9D2FA32FB22FF60146
:10271000858F968FA78FB0A3F0C0CE0165E471E0DE
:102720000E946C33009739F4D5011296CD91DC915B
:10273000139726966BC0CE0168E471E00E946C335B
:10274000009781F4F501C281D381C8010E9447330B
:102750009C018E899F898217930709F4D0C03F8B13
:102760002E8BCBC0CE016CE471E00E946C330097DD
:1027700081F4D5011296CD91DC911397C8010E9486
:1027800047332C8130E02817390709F4B8C08C830F
:10279000B4C0CE016FE471E00E946C33009771F415
:1027A000F501C281D381C8010E9447332D8130E0F9
:1027B0002817390709F4A3C08D839FC0CE0162E5B5
:1027C00071E00E946C33009791F4D5011296CD917F
:1027D000DC911397C8010E9447339C0189A19AA1FB
:1027E0008217930709F48BC03AA329A386C0CE01B0
:1027F00065E571E00E946C330097A1F4F801138243
:10280000D5011296CD91DC911397A496CE01B80113
:102810000E946C33009709F472C0CE01B8010E9487
:1028200075336BC0CE0168E571E00E946C33009790
:1028300071F4F501C281D381C8010E9447332BA1F5
:1028400030E02817390709F45AC08BA356C0CE01CF
:102850006BE571E00E946C33009781F4D50112960C
:10286000CD91DC911397C8010E94473328A530E031
:102870002817390709F443C088A73FC0CE016EE589
:1028800071E00E946C33009769F4F501C281D38135
:10289000C8010E94473329A530E02817390779F18C
:1028A00089A72BC0CE0161E671E00E946C330097CE
:1028B00089F4D5011296CD91DC911397C8010E943D
:1028C00047339C018AA59BA582179307C1F03BA7BC
:1028D0002AA713C0CE0164E671E00E946C33009712
:1028E00071F4F501C281D381C8010E9447332CA540
:1028F00030E02817390719F08CA79924939487148E
:1029000008F446CE992049F0D50112966D917C913C
:10291000139784EF91E00E94F811DF91CF911F91FE
:102920000F91FF90EF90DF90CF90BF90AF909F906E
:102930008F907F900895EF92FF920F931F93CF9304
:10294000DF938C01DC011296EC9112971396FC91A7
:102950008DE2DF011D928A95E9F7F801E280F380AC
:1029600064EF71E001C0BE01EB01219685E697E0BE
:102970000E941627D7018D937D01B2E0C132DB079B
:1029800091F7D8011296ED91FC9113978081918176
:10299000A281B3818D3020EF92072EEFA2072AE5A6
:1029A000B20709F454C08DE2DF011D928A95E9F760
:1029B000D8011296ED91FC9113978DE090EFAEEF58
:1029C000BAE580839183A283B38382ED90E0978BF5
:1029D000868B89E083A300D000D0F80182819381A7
:1029E0008496ADB7BEB712969C938E93119785E7E8
:1029F00092E014969C938E9313970E94A633D8016D
:102A00001296ED91FC9113978CE3808F1296ED91C5
:102A1000FC91139780E090E0A7EAB3E4818F928F56
:102A2000A38FB48F80E090E0A4E1B2E4858F968F0D
:102A3000A78FB0A384E690E093A782A70F900F9092
:102A40000F900F9084EF91E0BF010E94F811DF9189
:102A5000CF911F910F91FF90EF900895FC0171832A
:102A60006083538342830895CF92DF92EF92FF9267
:102A70000F931F93CF93DF93E62EF42E690100E0AE
:102A800010E0C0E0D0E017C08F2D61E00E94F02080
:102A90006AE070E080E090E00E940820CC0FDD1F2B
:102AA0008E2D0E942721C80FD91F8F2D60E00E9414
:102AB000F0200F5F1F4F0C151D0534F3CE01DF9181
:102AC000CF911F910F91FF90EF90DF90CF900895DD
:102AD0001F93CF93DF93162FC42FD22F842F61E043
:102AE0000E94BC208D2F61E00E94BC208C2F61E0F1
:102AF0000E94F0208D2F61E00E94F0208C2F60E07A
:102B00000E94F0208D2F60E00E94F0208D2F61E068
:102B10000E94F0208C2F61E00E94F0208D2F60E059
:102B20000E94F0208C2F6D2F41E0212F0E94502118
:102B30008D2F61E00E94F0208C2F60E00E94BC206D
:102B40008C2F0E9427218D2F60E00E94F0208C2F77
:102B50000E942721DF91CF911F9108951F93CF935A
:102B6000DF93162F862F60E00E94BC20C4E6D0E0E1
:102B70006AE070E080E090E00E940820812F0E94CF
:102B80002721009711F0219799F7DF91CF911F919D
:102B90000895CF92DF92EF92FF920F931F93CF93FE
:102BA000DF936C01162FF72E042FE52E862F60E0A1
:102BB0000E94BC20802F61E00E94BC20C601612FD2
:102BC0007F2D402F5E2D28E030E00E943415D82F55
:102BD00080E0C82F812F61E00E94BC20812F61E03E
:102BE0000E94F020812F60E00E94F020802F61E0A1
:102BF0000E94F020802F60E00E94F020812F60E092
:102C00000E94BC20C601612F7F2D402F5E2D28E041
:102C100030E00E9434158C2B9D2BDF91CF911F91BA
:102C20000F91FF90EF90DF90CF900895CF93DF93B7
:102C3000C62FD42F862F61E00E94BC208D2F61E02B
:102C40000E94BC208C2F61E00E94F0208D2F61E05B
:102C50000E94F0208D2F60E00E94F020DF91CF9144
:102C600008950F931F93CF93DF938C01FC01408154
:102C700051812281338163E070E00E946815F80180
:102C800060817181C8010E94AE15F8016081718177
:102C900042815381C8010E94C915EC01F80160818D
:102CA000718142815381C8010E941616BE01882796
:102CB00077FD8095982F0E943831462F572F682F27
:102CC000792FCB01BA01DF91CF911F910F91089518
:102CD0000E9431160E940531882777FD8095982F34
:102CE0000E9438312AE037ED43E25CE30E94513222
:102CF00020E030E040E252E40E94CF2F462F572FD1
:102D0000682F792FCB01BA0108956F927F928F922D
:102D10009F92AF92BF92CF92DF92EF92FF920F936A
:102D20001F93CF93DF938C01FC014081518122815D
:102D3000338165E070E00E946815F801608171815F
:102D4000C8010E94AE15F8016081718142815381F2
:102D5000C8010E94C915EC01F801608171814281AE
:102D60005381C8010E941616BE01882777FD809501
:102D7000982F0E9438316B017C0124E533EE45E247
:102D80005DE30E94513220E030E040E850E40E94D0
:102D9000CF2F4B015C01C701B60122EA37EE4BE3AE
:102DA00056EB0E945132A70196010E9451329B01BD
:102DB000AC01C501B4010E94D02FEB01782E692E21
:102DC000C8010E94681620E030E048EC51E40E94FF
:102DD000CF2F4B015C01C701B6012CEA35EC47EA65
:102DE00058E30E9451322AE037ED43E25CE30E944F
:102DF000D02F9B01AC01C501B4010E945132A30147
:102E00000C2F1D2F252F342FA90198010E94D02FA0
:102E1000462F572F682F792FCB01BA01DF91CF9121
:102E20001F910F91FF90EF90DF90CF90BF90AF90E8
:102E30009F908F907F906F900895FC01262F4FEF09
:102E40005FEFBA01408351836283738310861186DA
:102E5000128613868FEF99ECAAE9BBE3808B918BE6
:102E6000A28BB38B808F918FA28FB38F80A391A3FE
:102E7000A2A3B3A380A791A7A2A7B3A780AB91AB4E
:102E8000A2ABB3AB40AF51AF62AF73AFDF01A05C99
:102E9000BF4F8FEF90E08D939C93DF01AC5BBF4FF2
:102EA0004D935D936D937C931397DF01A45BBF4FAC
:102EB0004D935D936D937C931397DF01AC5ABF4F95
:102EC0001C92DF01AB5ABF4F1C92DF01AB59BF4FC1
:102ED00082E08C93DF01AA59BF4F1C92DF01A959F0
:102EE000BF4F1C92DF01A859BF4F1C92DF01A659AA
:102EF000BF4F1D921D921D921C921397DF01A25984
:102F0000BF4F1D921C92DF01A059BF4F1D921C9212
:102F1000DF01AA5ABF4F1C92E759FF4F2083089543
:102F2000262F2154862F90E0263010F4C79708955D
:102F30006156663018F4875590400895C0970895FB
:102F4000EF92FF920F931F93CF937B0100E010E06D
:102F5000980112C0C901B8012AE030E040E050E019
:102F60000E948C388B019C010C0F111D211D311DFD
:102F70000053104020403040F701C1917F018C2F59
:102F800080538A3038F3B801C901CF911F910F9156
:102F9000FF90EF9008952F923F924F925F926F9221
:102FA0007F928F929F92AF92BF92CF92DF92EF92D9
:102FB000FF920F931F93CF93DF9326E5E22EF12C20
:102FC000E80EF91EB7010E94A017EB01182F092F78
:102FD000F7012E2F9F2F8191382F30533A30C8F3AD
:102FE0008E32A1F5622E792E80E1C82E87E2D82E8E
:102FF000E12CF12C8824992454019AE0292E312CBB
:10300000412C512C19C070E060537040882777FD27
:103010008095982FA70196010E948C38DC01CB0186
:10302000880E991EAA1EBB1EC701B601A2019101FE
:103030000E94D23869017A01F30161810894611C10
:10304000711C862F80538A30F0F203C088249924A3
:103050005401BE01812F902F20EA36E841E050E074
:103060000E948C388B019C01080D191D2A1D3B1DE7
:10307000B801C901DF91CF911F910F91FF90EF909F
:10308000DF90CF90BF90AF909F908F907F906F9088
:103090005F904F903F902F9008952F923F924F92C4
:1030A0005F926F927F928F929F92AF92BF92CF92D8
:1030B000DF92EF92FF920F931F93CF93DF9356E52A
:1030C000C52ED12CC80ED91EB6010E94A017162FEE
:1030D000072FEC0124E630E040E050E00E94D238B7
:1030E00020EA36E841E050E00E948C384B015C0158
:1030F000F6012E2F9F2F8191382F30533A30C8F38D
:103100008E3281F5622E792E30E1C32E37E2D32E36
:10311000E12CF12C4AE0242E312C412C512C19C0E9
:1031200070E060537040882777FD8095982FA70145
:1031300096010E948C38DC01CB01880E991EAA1ED4
:10314000BB1EC701B601A20191010E94D2386901DC
:103150007A01F30161810894611C711C862F8053F0
:103160008A30F0F2C501B4016B5F7F4F8F4F9F4FE4
:1031700026E030E040E050E00E94D23869017A0158
:10318000612F702FCE0124E630E040E050E00E9435
:10319000D238CA01B90120E432E44FE050E00E9485
:1031A0008C38DC01CB01C80ED91EEA1EFB1EB6010D
:1031B000C701DF91CF911F910F91FF90EF90DF90AA
:1031C000CF90BF90AF909F908F907F906F905F90C7
:1031D0004F903F902F900895FF920F931F93CF939E
:1031E000DF93EC01CA5ADF4FFF24F39428812D327C
:1031F00011F0FF2403C0EC01C95ADF4FBE010E9449
:10320000A01724E630E040E050E00E948C388B01AB
:103210009C01FE018991982F90539A30D0F38E3201
:1032200051F54181842F80538A3028F5842F90E016
:10323000AC01440F551F73E0880F991F7A95E1F791
:10324000480F591F405E5140662757FD6095762F05
:10325000040F151F261F371F8281982F90539A3015
:1032600050F490E0C097AA2797FDA095BA2F080FB9
:10327000191F2A1F3B1FFF2039F03095209510950C
:1032800001951F4F2F4F3F4FB801C901DF91CF91DB
:103290001F910F91FF900895DB01FA018D91882312
:1032A00019F091918917D1F390E00895EF92FF9270
:1032B0000F931F93CF93DF938C01FC01EB5AFF4FC9
:1032C0008081F801882309F4EBC0EA5AFF4FC80156
:1032D00060810E949017C82FF801E95AFF4FC8017A
:1032E00060810E949017C295C07FC80FF801EC5A08
:1032F000FF4F8081F801C81709F0CAC0E859FF4F95
:103300008081F801882309F494C0E259FF4F80813D
:103310009181019691838083F801EC5BFF4FD80186
:10332000A85BBF4F8D919D910D90BC91A02D808386
:103330009183A283B383F801E45BFF4FD801A05BC4
:10334000BF4F8D919D910D90BC91A02D8083918355
:10335000A283B383F801EB59FF4F80818823A9F141
:10336000813009F0A7C1F80184819581A681B781D8
:1033700080839183A283B38384859585A685B78551
:1033800080879187A287B38784899589A689B78921
:10339000808B918BA28BB38B848D958DA68DB78DF1
:1033A000808F918FA28FB38F84A595A5A6A5B7A571
:1033B00080A791A7A2A7B3A784A995A9A6A9B7A9F1
:1033C00080AB91ABA2ABB3AB75C1F80184A195A161
:1033D000A6A1B7A180A391A3A2A3B3A38481958141
:1033E000A681B78180839183A283B38384899589E1
:1033F000A689B789808B918BA28BB38B848D958D99
:10340000A68DB78D808F918FA28FB38FE05CFF4F19
:10341000D801AE5BBF4F8D919C9191838083F80161
:1034200084AD95ADA6ADB7AD80AF91AFA2AFB3AF50
:1034300041C184819581A681B7810097A105B1051D
:1034400009F43AC1E801CC5BDF4FE85BFF4F4081F4
:10345000518162817381488359836A837B83F80138
:10346000EB59FF4F2081222389F0213009F024C13C
:10347000F80180839183A283B38384859585A68593
:10348000B78580879187A287B38716C1F80186C068
:10349000E059FF4F808191810196918380830CC117
:1034A000EA59FF4F8081882301F5E801CA5ADF4FAE
:1034B000C801BE0147E651E00E944C19B5E6EB2E6B
:1034C000F12CE00EF11E009711F481E00CC0C80150
:1034D000BE014DE651E00E944C19009719F4F70126
:1034E0001082EAC082E0F701C2C0F801EB59FF4F39
:1034F000E081E23009F4E0C0D801AA5ABF4F2C9114
:10350000222309F4D9C0F0E0A5E0EE0FFF1FAA9531
:10351000E1F790E0E82BF92B3197E932F10508F05B
:10352000CBC0EC5CFF4FEE0FFF1F0590F491E02D38
:103530000994C8010E94EC18DC01CB01F8018483D6
:103540009583A683B7830E94CC1FDC01CB01F801D1
:10355000E85BFF4F23C0F801E859FF4F81E02134B9
:1035600009F084C084C0F801E759FF4F80818823A7
:1035700021F0C8010E94CB1703C0C8010E944D185A
:10358000DC01CB01F801848B958BA68BB78B0E9455
:10359000CC1FDC01CB01F801E05BFF4F80839183FE
:1035A000A283B38389C0233509F086C0F8018489DA
:1035B0009589A689B789B095A095909581959F4FDB
:1035C000AF4FBF4F848B958BA68BB78B75C0F8011F
:1035D000E759FF4F8081882321F0C8010E94CB1753
:1035E00003C0C8010E944D18DC01CB01F8010FC0D7
:1035F000273509F061C0F801848D958DA68DB78DB2
:10360000B095A095909581959F4FAF4FBF4F848FF8
:10361000958FA68FB78F50C0C8010E94EC18DC01AF
:10362000CB01F80184A795A7A6A7B7A745C0C801F5
:103630000E94EC18DC01CB01F80184AB95ABA6AB82
:10364000B7AB3AC0B8016A5A7F4FC8010E94A017B1
:10365000DC01CB01F80184879587A687B7872CC04A
:10366000F801E859FF4F81E0213308F480E08083BE
:1036700023C0C8018A5A9F4F0E944733F801EE5B6E
:10368000FF4F8083118218C0C8010E94EC18DC0132
:10369000CB01F80184AF95AFA6AFB7AF0DC0C8019D
:1036A0000E94EC18DC01CB01F80184A395A3A6A32A
:1036B000B7A302C081E001C080E0DF91CF911F91EC
:1036C0000F91FF90EF9008950F931F93CF93DF9387
:1036D0000F92CDB7DEB78C01FC01E659FF4F808118
:1036E0009181A281B3810196A11DB11D8083918337
:1036F000A283B383F801E959FF4F6432C9F16532FF
:1037000030F46A3079F06D3009F049C00BC06A328C
:1037100049F06C3209F043C0F801EC5AFF4F808148
:1037200086278083F801E959FF4F80818F3060F44C
:10373000F801E80FF11DEA5AFF4F1082C8016983B2
:103740000E945619698101C080E0F801EA59FF4FD3
:1037500090819F5F9083F801E959FF4F1082F80133
:10376000EB5AFF4F91E06A3209F090E090832FC04E
:103770001082F801EA59FF4F1082F801EC5AFF4F0E
:103780001082F801EB59FF4F82E08083F801EB5A79
:10379000FF4F1082F801E859FF4F108217C0808157
:1037A0008E3040F4D801A80FB11DAA5ABF4F6C93B8
:1037B0008F5F8083F801EB5AFF4F8081882331F4BB
:1037C000F801EC5AFF4F80818627808380E00F90BC
:1037D000DF91CF911F910F9108954F925F926F9259
:1037E0007F928F929F92AF92BF92CF92DF92EF9291
:1037F000FF920F931F93CF93DF93CDB7DEB76497FC
:103800000FB6F894DEBF0FBECDBF69837A838B837A
:103810009C83CA01B90127013801A60195010E94C4
:10382000CF2F25E33AEF4EE85CE30E945132862E1B
:10383000C72E8C01982F482D5C2D692F712FCB013D
:10384000BA010E94B432698B7A8B8B8B9C8B882D4A
:103850009C2DA02FB12FBC01CD010E949A306D8309
:103860007E838F83988769817A818B819C8125E310
:103870003AEF4EE85CE30E945132E62E872EC82EC6
:10388000092FC301B20125E33AEF4EE85CE30E9441
:103890005132F62E172F482EB92E8E2D982DAC2D85
:1038A000B02FBC01CD010E94B43269837A838B832F
:1038B0009C838E2D982DAC2DB02FBC01CD010E9484
:1038C0009A3069877A878B879C878F2D912FA42DBB
:1038D000BB2DBC01CD010E94B4326D877E878F87DE
:1038E000988B8F2D912FA42DBB2DBC01CD010E9453
:1038F0009A306B017C0169857A858B859C852D8545
:103900003E854F8558890E9451324B015C01698187
:103910007A818B819C81A70196010E9451322D8171
:103920003E814F8158850E9451329B01AC01C501F7
:10393000B4010E94CF2FB62FA72F382F292FFD01BA
:10394000C9014F2F5E2F692F782FCB01BA01A90132
:103950000F2F1E2F252F342FA90198010E945132BD
:10396000862EB72E482EA92EC701B60129893A897D
:103970004B895C890E945132B62FA72F382F292FEF
:10398000FD01C9014F2F5E2F692F782FCB01BA019E
:10399000A9010F2F1E2F252F342FA90198010E9456
:1039A00051329B01AC01882D9B2DA42DBA2DBC0159
:1039B000CD010E94D02F462F572F682F792FCB0192
:1039C000BA010E94BE322B013C0169817A818B8150
:1039D0009C812D853E854F8558890E9451324B012F
:1039E0005C0169857A858B859C85A70196010E947B
:1039F00051322D813E814F8158850E9451329B0169
:103A0000AC01C501B4010E94D02F9B01AC01C301E0
:103A1000B2010E94433026E73BE742EC5AE40E94A1
:103A20005132462F572F682F792FCB01BA01649658
:103A30000FB6F894DEBF0FBECDBFDF91CF911F91BF
:103A40000F91FF90EF90DF90CF90BF90AF909F903D
:103A50008F907F906F905F904F9008950F931F937A
:103A6000CF93DF93EC0189016115710549F08889D5
:103A70009989AA89BB89FB0180839183A283B3833F
:103A80004115510549F0888D998DAA8DBB8DFA019C
:103A900080839183A283B3830115110519F1C45B5F
:103AA000DF4F88819981AA81BB818F3FFFEF9F07FC
:103AB000FFEFAF07FFEFBF0769F00E94CC1FDC01EB
:103AC000CB01488159816A817B81841B950BA60BB0
:103AD000B70B03C08FEF9FEFDC01F8018083918368
:103AE000A283B383DF91CF911F910F9108950F931C
:103AF0001F93CF93DF93EC0189016115710549F0A4
:103B000088859985AA85BB85FB0180839183A283E3
:103B1000B3834115510549F088819981AA81BB8100
:103B2000FA0180839183A283B3830115110519F1F2
:103B3000CC5BDF4F88819981AA81BB818F3FFFEFEA
:103B40009F07FFEFAF07FFEFBF0769F00E94CC1F91
:103B5000DC01CB01488159816A817B81841B950BF3
:103B6000A60BB70B03C08FEF9FEFDC01F80180833A
:103B70009183A283B383DF91CF911F910F91089519
:103B80002F923F924F925F926F927F928F929F926D
:103B9000AF92BF92CF92DF92EF92FF920F931F935B
:103BA000CF93DF93CDB7DEB72C970FB6F894DEBF77
:103BB0000FBECDBF3B012A011901FA86E986DC86DA
:103BC000CB869401BE016B5F7F4FAE014F5F5F4FAD
:103BD0000E94771D61147104D1F06D817E818F8107
:103BE000988524E630E040E050E00E94D238DC01C5
:103BF000CB019C01813591051CF08CE697E002C059
:103C000080ED97E0820F931FF3019183808341142D
:103C10005104A9F06D817E818F819885F4E6CF2EC5
:103C2000D12CE12CF12CA70196010E94D238CA01B7
:103C3000B901A70196010E94D238F20160832114D4
:103C4000310461F06D817E818F81988520E137E2BA
:103C500040E050E00E94D238F101208301151105A7
:103C600061F069817A818B819C8120E432E44FE0AC
:103C700050E00E94D238F801208389859A85009708
:103C8000A9F069817A818B819C8120E137E240E053
:103C900050E00E94D238CA01B90124E630E040E089
:103CA00050E00E94D238E985FA8560838B859C8537
:103CB0000097B1F069817A818B819C81E4E6CE2EF8
:103CC000D12CE12CF12CA70196010E94D238CA0117
:103CD000B901A70196010E94D238EB85FC8560836B
:103CE000A114B10461F069817A818B819C8124E601
:103CF00030E040E050E00E94D238F50160832C961D
:103D00000FB6F894DEBF0FBECDBFDF91CF911F91EC
:103D10000F91FF90EF90DF90CF90BF90AF909F906A
:103D20008F907F906F905F904F903F902F9008956D
:103D3000FC0160A171A182A193A16F3FF9EC7F0703
:103D4000FAE98F07FBE39F0749F00E94383120E032
:103D500030E048EC52E40E949D3004C060E074E220
:103D600084E799E4382F292F862F972FA32FB22F7E
:103D7000BC01CD010895FC0160A571A582A593A5A4
:103D80006F3FF9EC7F07FAE98F07FBE39F0749F0E4
:103D90000E94363120E030E048EC52E40E949D3031
:103DA00004C060E070E080E89FEB382F292F862F59
:103DB000972FA32FB22FBC01CD010895CF92DF9290
:103DC000EF92FF920E94BB1E6B017C0120E030E06D
:103DD00040E85FEB0E949630882349F0C701B601A6
:103DE00026E53EE04DEE5FE30E94513204C060E004
:103DF00070E080E89FEB382F292F862F972FA32F75
:103E0000B22FBC01CD01FF90EF90DF90CF900895CD
:103E10008230E8F4E82FF0E0EE0FFF1FE35DF94F8A
:103E200071836083813041F0809169008C7F842BA5
:103E300080936900E89A089580916900440F551FA6
:103E4000440F551F837F842B80936900E99A08955E
:103E50001F920F920FB60F9211242F933F934F93FF
:103E60005F936F937F938F939F93AF93BF93EF93E2
:103E7000FF9380912D0690912E06009729F0E091F6
:103E80002D06F0912E060995FF91EF91BF91AF910C
:103E90009F918F917F916F915F914F913F912F9162
:103EA0000F900FBE0F901F9018951F920F920FB694
:103EB0000F9211242F933F934F935F936F937F93B0
:103EC0008F939F93AF93BF93EF93FF9380912F06B0
:103ED00090913006009729F0E0912F06F09130067E
:103EE0000995FF91EF91BF91AF919F918F917F9134
:103EF0006F915F914F913F912F910F900FBE0F9057
:103F00001F9018951F920F920FB60F9211242F93A6
:103F10003F938F939F93AF93BF938091310690917E
:103F20003206A0913306B091340630913906232F22
:103F30002A5F2D3720F40296A11DB11D05C0232F45
:103F400027570396A11DB11D209339068093310692
:103F500090933206A0933306B093340680913506D1
:103F600090913606A0913706B09138060196A11DB2
:103F7000B11D8093350690933606A0933706B09313
:103F80003806BF91AF919F918F913F912F910F90E4
:103F90000FBE0F901F9018950F931F938FB7F89433
:103FA000009131061091320620913306309134068B
:103FB0008FBFB801C9011F910F9108950F931F93EF
:103FC0009FB7F89400913506109136062091370678
:103FD0003091380686B5A89B06C08F3F21F00F5F51
:103FE0001F4F2F4F3F4F9FBF322F212F102F0027E2
:103FF000080F111D211D311D43E0000F111F221F4D
:10400000331F4A95D1F7B801C9011F910F91089547
:10401000CF92DF92EF92FF92CF93DF936B017C01FF
:104020000E94DE1FDC01CB01EC010FC00E94DE1FED
:104030006C1B7D0B83E0683E780738F00894C1085C
:10404000D108E108F108C851DC4FC114D104E104E2
:10405000F10461F7DF91CF91FF90EF90DF90CF9067
:104060000895789484B5826084BD84B5816084BDF0
:1040700085B5826085BD85B5816085BDEEE6F0E0E1
:10408000808181608083E1E8F0E01082808182603D
:104090008083808181608083E0E8F0E080818160BE
:1040A0008083E1EBF0E0808184608083E0EBF0E0EE
:1040B000808181608083EAE7F0E080818460808392
:1040C000808182608083808181608083808180683C
:1040D00080831092C10008958093BB0108958E30B3
:1040E00008F08E5087709091BB019295990F990FAF
:1040F000907C982B90937C0080917A0080648093D0
:104100007A0080917A0086FDFCCF809178009091B2
:104110007900392F20E090E0822B932B0895833093
:1041200071F0843028F48130A1F0823021F514C080
:104130008630B1F08730D1F08430E9F404C080914A
:1041400080008F7703C0809180008F7D80938000F6
:10415000089584B58F7702C084B58F7D84BD08959E
:104160008091B0008F778093B00008958091B00067
:104170008F7D8093B000089590E0FC01E656FD4FDE
:10418000249182559D4FFC018491882341F190E058
:10419000880F991FFC01EA52FD4F45915491DA01B5
:1041A00084539D4FFC0185919491FC019FB7F89435
:1041B0008C91662331F4209582238C938081822315
:1041C00008C0623049F4322F309583238C9380816C
:1041D000822B80839FBF0895822B8C939FBF08956D
:1041E0000F931F93CF93DF930F92CDB7DEB7282F96
:1041F00030E0F901EA57FD4F8491F901E656FD4F91
:104200001491F901E255FD4F04910023D1F0882368
:1042100021F069830E948F206981E02FF0E0EE0F8A
:10422000FF1FE453FD4F85919491DC019FB7F894F3
:104230008C91662319F41095812301C0812B8C93F6
:104240009FBF0F90DF91CF911F910F910895CF9352
:10425000DF93282F30E0F901EA57FD4F8491F901EF
:10426000E656FD4FC491F901E255FD4FD491DD238F
:1042700091F0882311F00E948F20ED2FF0E0EE0FD7
:10428000FF1FEE53FD4F85919491FC0120812C235B
:1042900081E090E011F480E090E0DF91CF9108950B
:1042A000BF92CF92DF92EF92FF920F931F93CF9323
:1042B000DF93182F062FB42EC7E0D0E0E22EFF24A4
:1042C00097E0C92ED12CBB2059F4B6016C1B7D0B95
:1042D000C70102C0959587956A95E2F7BC0107C0B2
:1042E000B7010C2E02C0759567950A94E2F76170CC
:1042F000812F0E94F020802F61E00E94F020802F0B
:1043000060E00E94F02021978FEFCF3FD807D9F6C9
:10431000DF91CF911F910F91FF90EF90DF90CF90A1
:10432000BF900895FC0124853585F901E05CFF4FBD
:10433000808191812E5B3F4FF90120813181821B69
:10434000930B8F7390700895FC0144855585FA0195
:10435000E05CFF4F80819181FA01EE5BFF4F20818D
:1043600031818217930741F00190F081E02DE40F35
:10437000F51F808190E008958FEF9FEF0895FC0175
:1043800044855585FA01E05CFF4F20813181FA01B7
:10439000EE5BFF4F808191812817390779F0A0816A
:1043A000B181A40FB51F8C91208131812F5F3F4FC8
:1043B0002F7330703183208390E008958FEF9FEF4B
:1043C0000895DC011E96ED91FC911F97DF01A05C22
:1043D000BF4FEE5BFF4F2D913C91119780819181F2
:1043E00028173907C1F70895CF93DF93DC011E9694
:1043F0004D915C911F97EA01C05CDF4F28813981A4
:104400002F5F3F4F2F733070FA01EE5BFF4F8081BB
:10441000918128173907D9F3E881F981E40FF51F55
:1044200060831E96ED91FC911F97E05CFF4F3183F6
:1044300020835696ED91FC915797208181E090E082
:104440005D960C905D9702C0880F991F0A94E2F761
:10445000282B208381E090E0DF91CF91089508958B
:104460001F920F920FB60F9211242F933F934F93E9
:104470008F939F93EF93FF934091C6008091DD0649
:104480009091DE0601968F7390702091DF06309137
:10449000E0068217930759F0E091DD06F091DE0601
:1044A000E356F94F40839093DE068093DD06FF913B
:1044B000EF919F918F914F913F912F910F900FBE50
:1044C0000F901F9018958AE396E00E949221009722
:1044D00011F00E942F2208951F920F920FB60F9293
:1044E00011242F933F938F939F93EF93FF932091EA
:1044F000990630919A0680919B0690919C06281708
:10450000390731F48091C1008F7D8093C10014C0C0
:10451000E0919B06F0919C06E75AF94F208180912B
:104520009B0690919C0601968F73907090939C06C9
:1045300080939B062093C600FF91EF919F918F91EE
:104540003F912F910F900FBE0F901F9018957F9263
:104550008F929F92AF92BF92CF92DF92EF92FF9293
:104560000F931F93CF93DF93EC016A017B017724B4
:104570007394EC89FD8981E090E00E8C02C0880F75
:10458000991F0A94E2F7808360E874E88EE190E076
:10459000A70196010E94D23889019A01015010406A
:1045A00020403040369527951795079520E4822EB8
:1045B00022E4922E2FE0A22EB12C14C07724EC8995
:1045C000FD891082C501B401A70196010E94D2386D
:1045D00089019A01015010402040304036952795BE
:1045E0001795079580E10030180710F0772031F714
:1045F000E889F9891083EA89FB890083EE89FF89BC
:10460000408121E030E0C9010A8C02C0880F991F67
:104610000A94E2F7482B4083EE89FF894081C90163
:104620000B8C02C0880F991F0A94E2F7482B408335
:10463000EE89FF894081C9010C8C02C0880F991F47
:104640000A94E2F7482B4083EE89FF8980810D8C24
:1046500002C0220F331F0A94E2F7209528232083FB
:10466000DF91CF911F910F91FF90EF90DF90CF904E
:10467000BF90AF909F908F907F90089510923D06CD
:1046800010923C0688EE93E0A0E0B0E080933E06F6
:1046900090933F06A0934006B0934106ECE3F6E00A
:1046A00084EC93E0929382938DE996E095878487DA
:1046B00089E596E09787868785EC90E0918B808BE3
:1046C00084EC90E0938B828B80EC90E0958B848BD4
:1046D00081EC90E0978B868B86EC90E0918F808FB9
:1046E00084E0828F83E0838F87E0848F85E0858FED
:1046F00081E0868F0895CF92DF92EF92FF920F9321
:104700001F93CF93DF936C017B01EA0100E010E07F
:104710000EC0D7016D917D01D601ED91FC91019004
:10472000F081E02DC6010995080F191F21972097E8
:1047300081F7C801DF91CF911F910F91FF90EF900A
:10474000DF90CF900895DB010D900020E9F7AD01D7
:1047500041505040461B570BDC01ED91FC9102800B
:10476000F381E02D09950895DC01ED91FC91019014
:10477000F081E02D099508950F931F93CF93DF9358
:104780008C016DE00E94B423EC01C8016AE00E9434
:10479000B4238C0F9D1FDF91CF911F910F9108952E
:1047A0000F931F93CF93DF938C010E94A323EC01FF
:1047B000C8010E94BC238C0F9D1FDF91CF911F91D8
:1047C0000F9108950E9431200E941E04C3E6D2E298
:1047D0000E9463072097E1F30E946322F9CF2091A2
:1047E00063073091640728173907B9F49091E106FF
:1047F0008091E2069817A1F0E091E106F0E0ED511A
:10480000F94F80812091E10630E02F5F3F4F2F77F5
:1048100030702093E10690E008958FEF9FEF0895A8
:104820008FEF9FEF08952091630730916407281759
:10483000390771F49091E1068091E206981759F0DA
:10484000E091E106F0E0ED51F94F808190E00895AC
:104850008FEF9FEF08958FEF9FEF089520916307EB
:10486000309164072817390739F48FB7F8941092FC
:10487000E2061092E1068FBF089520916307309100
:1048800064072817390771F48091E2062091E10648
:1048900090E080589F4F821B910960E870E00E9471
:1048A000BF38089580E090E0089520E001972FEF51
:1048B0008F3F9207D9F70895FC018091630790918B
:1048C00064078E179F0781F0838D8E7F838F8FB74C
:1048D000F8941092E2061092E106F0936407E093D8
:1048E00063078FBF81E0089580E00895EF92FF9203
:1048F0000F931F93CF93DF93EC018B8DEE85FF8594
:104900009D8581FF04C08081892329F448C080816E
:10491000892309F044C08B899C890E94552428E092
:10492000E22EF12C01E010E08D899E890E94552431
:10493000EE85FF8580819D85892311F0102B03C0B2
:10494000802F80951823000F0894E108F108E114E6
:10495000F10451F78F89988D0E9455248B8D81FD2C
:1049600010958091E2062091E10690E001968F7704
:10497000907030E08217930779F0E091E206F0E062
:10498000ED51F94F10838091E20690E001968F7708
:1049900090708093E20603C08B8D81608B8FDF91D6
:1049A000CF911F910F91FF90EF900895FC01A18985
:1049B000B2899089662329F42C91892F80958223CE
:1049C00002C08C91892B8C930895DF92EF92FF9215
:1049D0000F931F93CF93DF93EC01F62E898D9A8D61
:1049E000009739F481E090E09B838A8380E090E037
:1049F00047C0EFB6F8948B8D61E081FF60E0CE0197
:104A00000E94D624898D9A8D04960E9455248B8D00
:104A100008E010E0DD24D39481FF15C08D2D8F2197
:104A200019F0CE0160E002C0CE0161E00E94D62400
:104A3000898D9A8D0E945524DD0C0150104071F72C
:104A4000CE0160E014C08D2D8F2119F0CE0161E000
:104A500002C0CE0160E00E94D624898D9A8D0E940A
:104A60005524DD0C0150104071F7CE0161E00E9429
:104A7000D624EFBE898D9A8D0E94552481E090E066
:104A8000DF91CF911F910F91FF90EF90DF900895EC
:104A90008091630790916407009711F00E9476243B
:104AA00008951F920F920FB60F9211242F933F93E8
:104AB0004F935F936F937F938F939F93AF93BF9326
:104AC000EF93FF930E944825FF91EF91BF91AF9123
:104AD0009F918F917F916F915F914F913F912F9116
:104AE0000F900FBE0F901F9018951F920F920FB648
:104AF0000F9211242F933F934F935F936F937F9364
:104B00008F939F93AF93BF93EF93FF930E9448259A
:104B1000FF91EF91BF91AF919F918F917F916F9195
:104B20005F914F913F912F910F900FBE0F901F906B
:104B300018951F920F920FB60F9211242F933F9347
:104B40004F935F936F937F938F939F93AF93BF9395
:104B5000EF93FF930E944825FF91EF91BF91AF9192
:104B60009F918F917F916F915F914F913F912F9185
:104B70000F900FBE0F901F9018951F93CF93DF9348
:104B8000EC01162F862F61E00E94BC20812F61E08E
:104B90000E94F020812F90E0FC01E656FD4FE49149
:104BA000E88BFC01E255FD4FE491F0E0EE0FFF1FB2
:104BB000E453FD4F85919491898B9A8BDF91CF912E
:104BC0001F9108951F93CF93DF93EC01162F862F2B
:104BD00060E00E94BC208B8D81FD04C0812F61E0CC
:104BE0000E94F0201C87812F90E0FC01E656FD4FCB
:104BF000E491ED87FC01E255FD4FE491F0E0EE0F0A
:104C0000FF1FEE53FD4F859194918E879F87DF9113
:104C1000CF911F9108951F93CF93DF93EC01162F2F
:104C20001B821A8288EE93E0A0E0B0E08C839D8323
:104C3000AE83BF8384ED93E0998388831C8A1B8AAB
:104C40001E8A1D8A188E1F8A1A8E198E8B8D2170CE
:104C5000220F8C7F822B8B8FCE01642F0E94BD256B
:104C6000CE01612F0E94E225DF91CF911F9108951F
:104C7000CF92DF92EF92FF92CF93DF93EC016A0124
:104C80007B011A8E198E188E1F8A1E8A1D8A1C8A15
:104C90001B8A20E030E0A901440F551F420F531F2B
:104CA000440F551F440F551FFA01E052FD4F8591E7
:104CB0009591A591B4918C159D05AE05BF05E9F4BC
:104CC000FA01EC51FD4F859194918B8B9C8BFA01ED
:104CD000EA51FD4F859194918D8B9E8BFA01E8519D
:104CE000FD4F859194918F8B988F46515D4FFA01BE
:104CF00085919491898F9A8F06C02F5F3F4F2C30FA
:104D0000310509F0C8CF8F89988D009709F448C004
:104D10009C85963108F040C020916800983020F0C2
:104D20009E3020F082E003C084E001C081E0822B4D
:104D3000809368005C85583048F05E3060F05631F2
:104D4000C8F1E0E0F0E0A0E0B0E009C0EDE6F0E09E
:104D5000ADE6B0E004C0EBE6F0E0ABE6B0E04C91CD
:104D6000583040F481E090E002C0880F991F5A95B6
:104D7000E2F710C0252F30E05E3018F428503040A4
:104D800002C02E50304081E090E002C0880F991F91
:104D90002A95E2F7842B8083898D9A8D0E94552471
:104DA000CE010E945C24DF91CF91FF90EF90DF90C5
:104DB000CF900895ECE6F0E0ACE6B0E0D0CFFC0197
:104DC0004485463150F5483028F04E3030F0ECE65E
:104DD000F0E005C0EDE6F0E002C0EBE6F0E0508167
:104DE000483040F481E090E002C0880F991F4A9556
:104DF000E2F710C0242F30E04E3018F42850304035
:104E000002C02E50304081E090E002C0880F991F10
:104E10002A95E2F7809585238083089524ED33E079
:104E2000FC01318320830E94DF260895CB010E947C
:104E3000A6350895CB01642F0E94AE350895FC017C
:104E4000758364837187608757834683538742875E
:104E5000158A158614861786168621E0248B8FEF17
:104E60009FEF938B828B918B808B268B08952F9253
:104E70003F924F925F926F927F928F929F92AF92EA
:104E8000BF92CF92DF92EF92FF920F931F93CF9337
:104E9000DF9300D000D0CDB7DEB72C017C836B83CD
:104EA0006A0159011701C801841B950B97FF03C0C4
:104EB000909581959F4F95014B815C81241B350B0B
:104EC00037FF03C0309521953F4F41E0642E712C90
:104ED0002817390714F0662477246114710459F0F7
:104EE0009A2D8B2D5801092F182F9B818C81DC82E4
:104EF000CB82C92ED82E8B819C81A816B9065CF472
:104F00009C2D8D2D6801092F182F9B818C81BC82CF
:104F1000AB82A92EB82ED501EB81FC81AE1BBF0B55
:104F2000BA83A98348018C189D0897FE04C0909409
:104F300081949108939489819A8162E070E00E9443
:104F4000BF387B01C016D1061CF401E010E027C079
:104F50000FEF1FEF24C0D201ED91FC911197048057
:104F6000F581E02DC2016114710421F0B6014B817D
:104F70005C8103C06B817C81A60191010995E818D1
:104F8000F908F7FE06C0C00ED11EE981FA81EE0EC7
:104F9000FF1E2B813C812F5F3F4F3C832B834B8136
:104FA0005C81A416B506BCF60F900F900F900F9081
:104FB000DF91CF911F910F91FF90EF90DF90CF90F5
:104FC000BF90AF909F908F907F906F905F904F9029
:104FD0003F902F9008956F927F928F929F92AF9201
:104FE000BF92CF92DF92EF92FF920F931F93CF93D6
:104FF000DF93EC016B015A0139014801E881F98125
:105000000484F585E02D87010995E881F981A501E2
:10501000480D591D415050400484F585E02DCE01C6
:10502000B60193010995E881F9810284F385E02DA9
:10503000CE01B601A50194010995E881F981B60177
:10504000660D771D615070400284F385E02DCE011E
:10505000A50194010995DF91CF911F910F91FF90C8
:10506000EF90DF90CF90BF90AF909F908F907F9008
:105070006F900895CF92DF92EF92FF920F931F935C
:10508000CF93DF93EB01D9017801FC0120813181BD
:10509000A40FB51F1197F901C084D1849E018D0121
:1050A000F6010995DF91CF911F910F91FF90EF903D
:1050B000DF90CF900895EF92FF920F931F93CF93BD
:1050C000DF93DA017801EC01E881F981260F371FBF
:1050D000215030400084F185E02D8D010995DF914C
:1050E000CF911F910F91FF90EF9008956F927F9253
:1050F0008F929F92AF92BF92CF92DF92EF92FF92E8
:105100000F931F93CF93DF935C013A01690148012C
:10511000EB01C60ED71E0DC0D501ED91FC910284A6
:10512000F385E02DC501BE01A30194018701099516
:105130002196CC15DD0584F3DF91CF911F910F915E
:10514000FF90EF90DF90CF90BF90AF909F908F90A7
:105150007F906F9008952F923F924F925F926F923F
:105160007F928F929F92AF92BF92CF92DF92EF92F7
:10517000FF920F931F93CF93DF93CDB7DEB72F9797
:105180000FB6F894DEBF0FBECDBF5C015E834D83CA
:10519000422F18870F83FA86E986DC0118968D91D5
:1051A0009C911997681779070CF0B1C01A968D91E8
:1051B0009C911B97ED81FE81E817F9070CF0A7C0C1
:1051C0002C2D30E0C901880F991F880F991F820F7D
:1051D000931F860F971F181619060CF098C0C90167
:1051E00013E0880F991F1A95E1F78E0F9F1F18166D
:1051F00019060CF08CC0842F90E04C01880C991C8F
:10520000880C991C880E991EC9821A821B017C8306
:105210006B8330E02C2D353029F0F401E059FC4F40
:10522000E49101C0E0E0C22C3D866D807E802301C8
:10523000DD243F872E872E2F30E03C872B87E0FF31
:105240001EC0D501ED91FC91BE85B13051F40480B2
:10525000F581E02DC5016B817C81A2012F8138850C
:1052600024C00088F189E02DC5016C2D7D85A30146
:105270002E8530E0022F10E0EF80F88425C0E9850C
:10528000FA852F813885E217F307F9F0D501ED9102
:10529000FC91BE85B13059F40480F581E02DC50143
:1052A0006B817C81A20129853A8509950EC0008811
:1052B000F189E02DC5016C2D7D85A3012E8530E09F
:1052C000022F10E0E984FA840995EB85FC85F595B9
:1052D000E795D39429813A81620E731E0894411C8C
:1052E000511C38E0D31609F0A6CF3F852E853F5FCD
:1052F00089819A81280E391EAB81BC811196BC83AD
:10530000AB830894811C911C363009F084CF2F9612
:105310000FB6F894DEBF0FBECDBFDF91CF911F91C6
:105320000F91FF90EF90DF90CF90BF90AF909F9044
:105330008F907F906F905F904F903F902F90089547
:10534000CF92EF92FF920F931F93CF93DF93EC01D5
:10535000262F6A3061F42C8930E013E0220F331FCE
:105360001A95E1F78E859F85820F931F3AC06D30A5
:10537000E1F14C855D85EE85FF8508891989EA880C
:10538000FB88BA01AF01CC880E94AB284C8950E061
:105390009A01220F331F240F351F220F331F8C85D4
:1053A0009D85280F391F3D872C878E898823E9F03A
:1053B0008AEF9FEF489FB001499F700D589F700D75
:1053C000112488859985680F791F621773076CF41B
:1053D00083E0440F551F8A95E1F78E859F85840FE2
:1053E000951F9F878E871D861C8681E090E0DF9148
:1053F000CF911F910F91FF90EF90CF900895FC01F6
:1054000075876487578746870895662309F461E0A6
:10541000FC01648B0895FC01718B608B738B628B34
:105420000895FC01718B608B538B428B0895FC01B6
:1054300085898370858B0895FC0180859185089509
:10544000FC01828593850895CF92DF92EF92FF92BF
:105450000F931F93CF93DF93EC017B018A016901C6
:1054600077FD64C00E941C2AE816F9060CF05EC0A5
:1054700017FD5CC0CE010E94202A081719070CF006
:1054800055C049C08C819D81801B910B87017C0197
:105490000894E108F10818C08C819D819C012E19A7
:1054A0003F0979010894E108F1088E819F819C01F0
:1054B000201B310B890106C08E819F818E199F09A7
:1054C00078018C0101501040C80168E070E00E9432
:1054D000BF38FB01F695FE2FEE27F795E795EE0D09
:1054E000FF1DE454FE4F31E0C316D10441F402C065
:1054F000CC0CDD1C8A95E2F780818C290AC021E062
:1055000030E002C0220F331F8A95E2F72095808198
:10551000822380830BC0CE010E94172A823009F4B7
:10552000BBCF833049F2813079F6ACCFDF91CF9198
:105530001F910F91FF90EF90DF90CF900895EF9221
:105540000F93FC011382128284EE93E09183808397
:10555000E48E038F228F418F608F0F91EF9008951B
:1055600080E092E0ECEBF1E0DF019C011D92215024
:105570003040E1F70895FC0188E090E030E8A78D25
:10558000B0A14C9126A1209524232C93432F462390
:10559000A58DB68D25A1442321F04C91422B4C932F
:1055A00004C04C91209524232C93A78DB0A12C915D
:1055B00046A1242B2C933695019709F708951F9344
:1055C000CF93DF93EC01162F888D8F3FF1F0E9A187
:1055D000FAA180819FA1892B8083EBA1FCA19081FE
:1055E00088A5809589238083E9A1FAA190818FA164
:1055F000809589238083CE010E94BB2AE9A1FAA16C
:1056000080819FA1892B808316C06F89772767FDD2
:10561000709586E697E00E949E2D86E697E060E012
:105620000E945A2D86E697E0612F0E945A2D86E649
:1056300097E00E94B42DDF91CF911F9108956623CA
:1056400011F067EA01C066EA0E94DF2A08950F930D
:105650001F93CF93DF93EC01162F042F60E870E0C7
:1056600040E250E00E941F270F8B888D8F3F09F486
:1056700068C061E00E94BC20898D61E00E94BC206E
:105680008A8D61E00E94BC208C8D61E00E94BC206C
:10569000298D332727FD3095F901E255FD4FE4911F
:1056A000F0E0EE0FFF1FE453FD4F859194918F8F33
:1056B00098A326563D4FF90124912EA3288D332718
:1056C00027FD3095F901E255FD4FE491F0E0EE0F32
:1056D000FF1FE453FD4F859194918D8F9E8F265629
:1056E0003D4FF90124912DA32C8D332727FD3095B3
:1056F000F901E255FD4FE491F0E0EE0FFF1FE45396
:10570000FD4F8591949189A39AA326563D4FF901A7
:1057100024912FA32A8D332727FD3095F901E255D7
:10572000FD4FE491F0E0EE0FFF1FE453FD4F859134
:1057300094918BA39CA326563D4FF901249128A751
:1057400004C086E697E00E94892D8B8D61E00E945F
:10575000BC208B8D61E00E94F02061E070E080E071
:1057600090E00E9408208B8D60E00E94F0206AE0AB
:1057700070E080E090E00E9408208B8D61E00E9444
:10578000F020CE016EEA0E94DF2ACE0165ED0E9474
:10579000DF2ACE0160E80E94DF2ACE0168EA0E947B
:1057A000DF2ACE016FE10E94DF2ACE0163ED0E9465
:1057B000DF2ACE0160E00E94DF2ACE0160E40E9471
:1057C000DF2ACE016DE80E94DF2ACE01113011F4EC
:1057D00060E101C064E10E94DF2ACE0160E20E9424
:1057E000DF2ACE0160E00E94DF2ACE0161EA0E943A
:1057F000DF2ACE0168EC0E94DF2ACE016AED0E940A
:10580000DF2ACE0162E00E94DF2ACE0161E80E9419
:10581000DF2ACE016FE80E94DF2ACE0169ED0E94E7
:10582000DF2ACE01113011F462E201C061EF0E9463
:10583000DF2ACE016BED0E94DF2ACE0160E40E94D8
:10584000DF2ACE0164EA0E94DF2ACE0166EA0E94C6
:10585000DF2ACE016FEA0E94DF2ADF91CF911F91EC
:105860000F910895BF92CF92DF92EF92FF920F9324
:105870001F93CF93DF938C0160E00E94DF2AC80161
:1058800060E10E94DF2AC80160E40E94DF2AD8019B
:1058900058968C9158978F3F09F443C09196ED919B
:1058A000FC919297808197969C919797892B808302
:1058B0009396ED91FC919497808198969C919897FE
:1058C000892B80839196ED91FC9192979081979688
:1058D0008C918095892380839CEBE92E91E0F92EB1
:1058E000C0E0D0E0F70161917F01C8010E94BB2AAE
:1058F0002196F2E0C030DF07A9F7C0E0D2E0C8018E
:1059000060E00E94BB2A2197D1F7D8019196ED91D2
:10591000FC919297808197969C919797892B808391
:1059200064C0B090B8008CE08093B800CC24DD2433
:10593000F8016789772767FD709586E697E00E94F2
:105940009E2DE0916607F09167070190F081E02DB0
:1059500086E697E060E40995EE24FF24E601C4544E
:10596000DE4FFE01EE0DFF1D86E697E060810E948E
:105970005A2D0894E11CF11CF0E1EF16F10489F7AF
:1059800080E190E0C80ED91E86E697E00E94B42D13
:1059900090E0C91692E0D90659F6C0E2D0E0D801ED
:1059A00057966C91772767FD709586E697E00E9481
:1059B0009E2DE0916607F09167070190F081E02D40
:1059C00086E697E060E4099580E1E82E86E697E0B8
:1059D00060E00E945A2DEA94C9F786E697E00E949B
:1059E000B42D2197E1F6B092B800DF91CF911F91CD
:1059F0000F91FF90EF90DF90CF90BF90089580912E
:105A0000960790E020919707821B910908952091B5
:105A1000970780919607281750F4E22FF0E0E85698
:105A2000F84F808190E02F5F2093970708958FEFC4
:105A30009FEF0895E091970780919607E81730F45B
:105A4000F0E0E856F84F808190E008958FEF9FEFE7
:105A500008950895CF92DF92EF92FF920F931F93D4
:105A6000CF93DF936C01CB018A012091720722232F
:105A7000A1F07B01C0E0D0E00CC0D7016D917D01A9
:105A8000D601ED91FC910190F081E02DC6010995C0
:105A90002196C017D10789F703C0642F0E943F2EBB
:105AA000C801DF91CF911F910F91FF90EF90DF9090
:105AB000CF900895CF93DF930F92CDB7DEB7698370
:105AC000209172072223D1F020917307203240F0F9
:105AD00021E030E0FC013383228380E090E015C0B8
